{"contracts/NFTAuction.sol":{"NFTAuction":{"abi":[{"inputs":[{"internalType":"address","name":"_nftContract","type":"address"},{"internalType":"address payable","name":"_charityWallet","type":"address"}],"stateMutability":"nonpayable","type":"constructor"},{"inputs":[{"internalType":"address","name":"owner","type":"address"}],"name":"OwnableInvalidOwner","type":"error"},{"inputs":[{"internalType":"address","name":"account","type":"address"}],"name":"OwnableUnauthorizedAccount","type":"error"},{"anonymous":false,"inputs":[{"indexed":true,"internalType":"uint256","name":"tokenId","type":"uint256"},{"indexed":false,"internalType":"address","name":"winner","type":"address"},{"indexed":false,"internalType":"uint256","name":"amount","type":"uint256"}],"name":"AuctionEnded","type":"event"},{"anonymous":false,"inputs":[{"indexed":true,"internalType":"uint256","name":"tokenId","type":"uint256"},{"indexed":false,"internalType":"uint256","name":"endTime","type":"uint256"}],"name":"AuctionStarted","type":"event"},{"anonymous":false,"inputs":[{"indexed":true,"internalType":"uint256","name":"tokenId","type":"uint256"},{"indexed":false,"internalType":"address","name":"bidder","type":"address"},{"indexed":false,"internalType":"uint256","name":"amount","type":"uint256"}],"name":"HighestBidIncreased","type":"event"},{"anonymous":false,"inputs":[{"indexed":true,"internalType":"address","name":"previousOwner","type":"address"},{"indexed":true,"internalType":"address","name":"newOwner","type":"address"}],"name":"OwnershipTransferred","type":"event"},{"inputs":[{"internalType":"uint256","name":"tokenId","type":"uint256"}],"name":"auctionEnd","outputs":[],"stateMutability":"nonpayable","type":"function"},{"inputs":[{"internalType":"uint256","name":"","type":"uint256"}],"name":"auctions","outputs":[{"internalType":"address payable","name":"seller","type":"address"},{"internalType":"uint256","name":"highestBid","type":"uint256"},{"internalType":"address","name":"highestBidder","type":"address"},{"internalType":"bool","name":"ended","type":"bool"},{"internalType":"uint256","name":"endTime","type":"uint256"}],"stateMutability":"view","type":"function"},{"inputs":[{"internalType":"uint256","name":"tokenId","type":"uint256"}],"name":"bid","outputs":[],"stateMutability":"payable","type":"function"},{"inputs":[],"name":"charityWallet","outputs":[{"internalType":"address payable","name":"","type":"address"}],"stateMutability":"view","type":"function"},{"inputs":[{"internalType":"uint256","name":"tokenId","type":"uint256"},{"internalType":"uint256","name":"biddingTime","type":"uint256"}],"name":"listNFT","outputs":[],"stateMutability":"nonpayable","type":"function"},{"inputs":[],"name":"nftContract","outputs":[{"internalType":"contract BasicNFT","name":"","type":"address"}],"stateMutability":"view","type":"function"},{"inputs":[],"name":"owner","outputs":[{"internalType":"address","name":"","type":"address"}],"stateMutability":"view","type":"function"},{"inputs":[],"name":"renounceOwnership","outputs":[],"stateMutability":"nonpayable","type":"function"},{"inputs":[{"internalType":"address","name":"newOwner","type":"address"}],"name":"transferOwnership","outputs":[],"stateMutability":"nonpayable","type":"function"},{"inputs":[{"internalType":"uint256","name":"tokenId","type":"uint256"}],"name":"withdraw","outputs":[{"internalType":"bool","name":"","type":"bool"}],"stateMutability":"nonpayable","type":"function"}],"evm":{"bytecode":{"linkReferences":{},"object":"6080346100e357601f610b7f38819003918201601f19168301916001600160401b038311848410176100e85780849260409485528339810103126100e35780516001600160a01b0391828216918290036100e35760200151908282168092036100e35733156100ca576000549060018060a01b0319913383821617600055604051943391167f8be0079c531659141344cd1fd0a4f28419497f9722a3daafe3b4186f6b6457e0600080a3600180558160025416176002556003541617600355610a8090816100ff8239f35b604051631e4fbdf760e01b815260006004820152602490fd5b600080fd5b634e487b7160e01b600052604160045260246000fdfe60406080815260048036101561001457600080fd5b600091823560e01c80632e1a7d4d146108ac57806332246e9f1461061f578063454a2ab314610485578063571a26a014610425578063715018a6146103c85780637b2087691461039f5780638da5cb5b1461037757806394383f1414610155578063d56d229d146101285763f2fde38b1461008e57600080fd5b34610124576020366003190112610124576001600160a01b03823581811693919290849003610120576100bf6108e1565b831561010a575050600054826bffffffffffffffffffffffff60a01b821617600055167f8be0079c531659141344cd1fd0a4f28419497f9722a3daafe3b4186f6b6457e0600080a380f35b51631e4fbdf760e01b8152908101849052602490fd5b8480fd5b8280fd5b83823461015157816003193601126101515760025490516001600160a01b039091168152602090f35b5080fd5b5091903461015157826003193601126101515760025483516331a9108f60e11b815282358184018190529260209290916001600160a01b03918216918482602481865afa91821561036d578792610305575b50339116036102c457803b156101205785516323b872dd60e01b815233838201908152306020820152604081018690529091869183919082908490829060600103925af180156102ba579085916102a2575b50839052815283832080546001600160a01b031916331781559361021f60243542610937565b6003860190815560056002870196875497600198888a8401556affffffffffffffffffffff60a81b1690550180549086815581610286575b50505490519081527ff8910119ddbef5440c54532457dfe8250a10ed39e583292818f44724b9e1344c9190a280f35b8652838620908101905b81811015610257578681558701610290565b6102ab9061090d565b6102b65783386101f9565b8380fd5b86513d87823e3d90fd5b508160649286519262461bcd60e51b845283015260248201527f596f75206d757374206f776e20746865204e465420746f206c6973742069742e6044820152fd5b909150843d8611610366575b601f8101601f1916820167ffffffffffffffff81118382101761035157869183918b528101031261034d5751818116810361034d5790386101a7565b8680fd5b604186634e487b7160e01b6000525260246000fd5b503d610311565b88513d89823e3d90fd5b838234610151578160031936011261015157905490516001600160a01b039091168152602090f35b83823461015157816003193601126101515760035490516001600160a01b039091168152602090f35b83346104225780600319360112610422576103e16108e1565b600080546001600160a01b0319811682556001600160a01b03167f8be0079c531659141344cd1fd0a4f28419497f9722a3daafe3b4186f6b6457e08280a380f35b80fd5b5090346101245760203660031901126101245760a0928183923582526020522060ff600180851b03918281541693600182015493600360028401549301549482519687526020870152821690850152841c16151560608301526080820152f35b50829060203660031901126101515782359061049f610988565b81835283602052808320600381015442116105e357600181018054803411156105a057908160059392610573575b506002820180546001600160a01b031916331790553490550180549068010000000000000000821015610560578161052c9160017fda0a18da71d8ebd145966339a728fc0d8ccc07c22870d561890d823c515dda6b959401815561095a565b81546001600160a01b0360039290921b91821b1916339182901b179091559051908152346020820152604090a26001805580f35b634e487b7160e01b855260418652602485fd5b60018060a01b0360028401541660005287830160205261059885600020918254610937565b9055876104cd565b835162461bcd60e51b8152602081890152601e60248201527f546865726520616c7265616479206973206120686967686572206269642e00006044820152606490fd5b815162461bcd60e51b8152602081870152601660248201527520bab1ba34b7b71030b63932b0b23c9032b73232b21760511b6044820152606490fd5b50903461012457602090816003193601126102b65780359261063f610988565b838552818352808520600393848201544210610871576002820191825460ff8160a01c1661082257600160a01b60ff60a01b1982161784556001828101805487516001600160a01b039485168082526020820192909252929a919290918c9181907fd2aa34a4fdbbc6dff6a3e56f46e0f3ae2a31d7785ff3487aa5c95c642acea50190604090a28460025416803b156101245789516323b872dd60e01b815230818d019081526001600160a01b0390951660208601526040850192909252909283919082908490829060600103925af1801561081857610805575b508980808093858c54169054908282156107fc575bf1156107f25788979660058301885b61074a575b8989805580f35b80548b10156107ed57898361075f8d8461095a565b905490851b1c16848854168103610799575b50506000198b1461078657998801998861073e565b634e487b7160e01b8a526011885260248afd5b8060005289860187528860002080549081159182156107bb575b505050610771565b849384938480945583906107e4575bf1156107da5789388080806107b3565b86513d8b823e3d90fd5b506108fc6107ca565b610743565b84513d8a823e3d90fd5b506108fc61072f565b610811909a919a61090d565b983861071a565b87513d8d823e3d90fd5b845162461bcd60e51b8152808701849052602360248201527f61756374696f6e456e642068617320616c7265616479206265656e2063616c6c60448201526232b21760e91b6064820152608490fd5b8360649184519162461bcd60e51b8352820152601660248201527520bab1ba34b7b7103737ba103cb2ba1032b73232b21760511b6044820152fd5b50823461042257602036600319011261042257506108d46020926108ce610988565b356109de565b9060018055519015158152f35b6000546001600160a01b031633036108f557565b60405163118cdaa760e01b8152336004820152602490fd5b67ffffffffffffffff811161092157604052565b634e487b7160e01b600052604160045260246000fd5b9190820180921161094457565b634e487b7160e01b600052601160045260246000fd5b80548210156109725760005260206000200190600090565b634e487b7160e01b600052603260045260246000fd5b600260015414610999576002600155565b60405162461bcd60e51b815260206004820152601f60248201527f5265656e7472616e637947756172643a207265656e7472616e742063616c6c006044820152606490fd5b600090815260046020526004604082200133825280602052604082209081549182158015610a11575b5050505050600190565b84809255838291610a40575b8280929181923390f115610a32578080610a07565b338352602052604082205590565b6108fc9150610a1d56fea2646970667358221220547cf8625fc6221c264d7ea076393dc04aa5b58eaebb3b6a6ec52c99ce252d1264736f6c63430008140033","opcodes":"PUSH1 0x80 CALLVALUE PUSH2 0xE3 JUMPI PUSH1 0x1F PUSH2 0xB7F CODESIZE DUP2 SWAP1 SUB SWAP2 DUP3 ADD PUSH1 0x1F NOT AND DUP4 ADD SWAP2 PUSH1 0x1 PUSH1 0x1 PUSH1 0x40 SHL SUB DUP4 GT DUP5 DUP5 LT OR PUSH2 0xE8 JUMPI DUP1 DUP5 SWAP3 PUSH1 0x40 SWAP5 DUP6 MSTORE DUP4 CODECOPY DUP2 ADD SUB SLT PUSH2 0xE3 JUMPI DUP1 MLOAD PUSH1 0x1 PUSH1 0x1 PUSH1 0xA0 SHL SUB SWAP2 DUP3 DUP3 AND SWAP2 DUP3 SWAP1 SUB PUSH2 0xE3 JUMPI PUSH1 0x20 ADD MLOAD SWAP1 DUP3 DUP3 AND DUP1 SWAP3 SUB PUSH2 0xE3 JUMPI CALLER ISZERO PUSH2 0xCA JUMPI PUSH1 0x0 SLOAD SWAP1 PUSH1 0x1 DUP1 PUSH1 0xA0 SHL SUB NOT SWAP2 CALLER DUP4 DUP3 AND OR PUSH1 0x0 SSTORE PUSH1 0x40 MLOAD SWAP5 CALLER SWAP2 AND PUSH32 0x8BE0079C531659141344CD1FD0A4F28419497F9722A3DAAFE3B4186F6B6457E0 PUSH1 0x0 DUP1 LOG3 PUSH1 0x1 DUP1 SSTORE DUP2 PUSH1 0x2 SLOAD AND OR PUSH1 0x2 SSTORE PUSH1 0x3 SLOAD AND OR PUSH1 0x3 SSTORE PUSH2 0xA80 SWAP1 DUP2 PUSH2 0xFF DUP3 CODECOPY RETURN JUMPDEST PUSH1 0x40 MLOAD PUSH4 0x1E4FBDF7 PUSH1 0xE0 SHL DUP2 MSTORE PUSH1 0x0 PUSH1 0x4 DUP3 ADD MSTORE PUSH1 0x24 SWAP1 REVERT JUMPDEST PUSH1 0x0 DUP1 REVERT JUMPDEST PUSH4 0x4E487B71 PUSH1 0xE0 SHL PUSH1 0x0 MSTORE PUSH1 0x41 PUSH1 0x4 MSTORE PUSH1 0x24 PUSH1 0x0 REVERT INVALID PUSH1 0x40 PUSH1 0x80 DUP2 MSTORE PUSH1 0x4 DUP1 CALLDATASIZE LT ISZERO PUSH2 0x14 JUMPI PUSH1 0x0 DUP1 REVERT JUMPDEST PUSH1 0x0 SWAP2 DUP3 CALLDATALOAD PUSH1 0xE0 SHR DUP1 PUSH4 0x2E1A7D4D EQ PUSH2 0x8AC JUMPI DUP1 PUSH4 0x32246E9F EQ PUSH2 0x61F JUMPI DUP1 PUSH4 0x454A2AB3 EQ PUSH2 0x485 JUMPI DUP1 PUSH4 0x571A26A0 EQ PUSH2 0x425 JUMPI DUP1 PUSH4 0x715018A6 EQ PUSH2 0x3C8 JUMPI DUP1 PUSH4 0x7B208769 EQ PUSH2 0x39F JUMPI DUP1 PUSH4 0x8DA5CB5B EQ PUSH2 0x377 JUMPI DUP1 PUSH4 0x94383F14 EQ PUSH2 0x155 JUMPI DUP1 PUSH4 0xD56D229D EQ PUSH2 0x128 JUMPI PUSH4 0xF2FDE38B EQ PUSH2 0x8E JUMPI PUSH1 0x0 DUP1 REVERT JUMPDEST CALLVALUE PUSH2 0x124 JUMPI PUSH1 0x20 CALLDATASIZE PUSH1 0x3 NOT ADD SLT PUSH2 0x124 JUMPI PUSH1 0x1 PUSH1 0x1 PUSH1 0xA0 SHL SUB DUP3 CALLDATALOAD DUP2 DUP2 AND SWAP4 SWAP2 SWAP3 SWAP1 DUP5 SWAP1 SUB PUSH2 0x120 JUMPI PUSH2 0xBF PUSH2 0x8E1 JUMP JUMPDEST DUP4 ISZERO PUSH2 0x10A JUMPI POP POP PUSH1 0x0 SLOAD DUP3 PUSH12 0xFFFFFFFFFFFFFFFFFFFFFFFF PUSH1 0xA0 SHL DUP3 AND OR PUSH1 0x0 SSTORE AND PUSH32 0x8BE0079C531659141344CD1FD0A4F28419497F9722A3DAAFE3B4186F6B6457E0 PUSH1 0x0 DUP1 LOG3 DUP1 RETURN JUMPDEST MLOAD PUSH4 0x1E4FBDF7 PUSH1 0xE0 SHL DUP2 MSTORE SWAP1 DUP2 ADD DUP5 SWAP1 MSTORE PUSH1 0x24 SWAP1 REVERT JUMPDEST DUP5 DUP1 REVERT JUMPDEST DUP3 DUP1 REVERT JUMPDEST DUP4 DUP3 CALLVALUE PUSH2 0x151 JUMPI DUP2 PUSH1 0x3 NOT CALLDATASIZE ADD SLT PUSH2 0x151 JUMPI PUSH1 0x2 SLOAD SWAP1 MLOAD PUSH1 0x1 PUSH1 0x1 PUSH1 0xA0 SHL SUB SWAP1 SWAP2 AND DUP2 MSTORE PUSH1 0x20 SWAP1 RETURN JUMPDEST POP DUP1 REVERT JUMPDEST POP SWAP2 SWAP1 CALLVALUE PUSH2 0x151 JUMPI DUP3 PUSH1 0x3 NOT CALLDATASIZE ADD SLT PUSH2 0x151 JUMPI PUSH1 0x2 SLOAD DUP4 MLOAD PUSH4 0x31A9108F PUSH1 0xE1 SHL DUP2 MSTORE DUP3 CALLDATALOAD DUP2 DUP5 ADD DUP2 SWAP1 MSTORE SWAP3 PUSH1 0x20 SWAP3 SWAP1 SWAP2 PUSH1 0x1 PUSH1 0x1 PUSH1 0xA0 SHL SUB SWAP2 DUP3 AND SWAP2 DUP5 DUP3 PUSH1 0x24 DUP2 DUP7 GAS STATICCALL SWAP2 DUP3 ISZERO PUSH2 0x36D JUMPI DUP8 SWAP3 PUSH2 0x305 JUMPI JUMPDEST POP CALLER SWAP2 AND SUB PUSH2 0x2C4 JUMPI DUP1 EXTCODESIZE ISZERO PUSH2 0x120 JUMPI DUP6 MLOAD PUSH4 0x23B872DD PUSH1 0xE0 SHL DUP2 MSTORE CALLER DUP4 DUP3 ADD SWAP1 DUP2 MSTORE ADDRESS PUSH1 0x20 DUP3 ADD MSTORE PUSH1 0x40 DUP2 ADD DUP7 SWAP1 MSTORE SWAP1 SWAP2 DUP7 SWAP2 DUP4 SWAP2 SWAP1 DUP3 SWAP1 DUP5 SWAP1 DUP3 SWAP1 PUSH1 0x60 ADD SUB SWAP3 GAS CALL DUP1 ISZERO PUSH2 0x2BA JUMPI SWAP1 DUP6 SWAP2 PUSH2 0x2A2 JUMPI JUMPDEST POP DUP4 SWAP1 MSTORE DUP2 MSTORE DUP4 DUP4 KECCAK256 DUP1 SLOAD PUSH1 0x1 PUSH1 0x1 PUSH1 0xA0 SHL SUB NOT AND CALLER OR DUP2 SSTORE SWAP4 PUSH2 0x21F PUSH1 0x24 CALLDATALOAD TIMESTAMP PUSH2 0x937 JUMP JUMPDEST PUSH1 0x3 DUP7 ADD SWAP1 DUP2 SSTORE PUSH1 0x5 PUSH1 0x2 DUP8 ADD SWAP7 DUP8 SLOAD SWAP8 PUSH1 0x1 SWAP9 DUP9 DUP11 DUP5 ADD SSTORE PUSH11 0xFFFFFFFFFFFFFFFFFFFFFF PUSH1 0xA8 SHL AND SWAP1 SSTORE ADD DUP1 SLOAD SWAP1 DUP7 DUP2 SSTORE DUP2 PUSH2 0x286 JUMPI JUMPDEST POP POP SLOAD SWAP1 MLOAD SWAP1 DUP2 MSTORE PUSH32 0xF8910119DDBEF5440C54532457DFE8250A10ED39E583292818F44724B9E1344C SWAP2 SWAP1 LOG2 DUP1 RETURN JUMPDEST DUP7 MSTORE DUP4 DUP7 KECCAK256 SWAP1 DUP2 ADD SWAP1 JUMPDEST DUP2 DUP2 LT ISZERO PUSH2 0x257 JUMPI DUP7 DUP2 SSTORE DUP8 ADD PUSH2 0x290 JUMP JUMPDEST PUSH2 0x2AB SWAP1 PUSH2 0x90D JUMP JUMPDEST PUSH2 0x2B6 JUMPI DUP4 CODESIZE PUSH2 0x1F9 JUMP JUMPDEST DUP4 DUP1 REVERT JUMPDEST DUP7 MLOAD RETURNDATASIZE DUP8 DUP3 RETURNDATACOPY RETURNDATASIZE SWAP1 REVERT JUMPDEST POP DUP2 PUSH1 0x64 SWAP3 DUP7 MLOAD SWAP3 PUSH3 0x461BCD PUSH1 0xE5 SHL DUP5 MSTORE DUP4 ADD MSTORE PUSH1 0x24 DUP3 ADD MSTORE PUSH32 0x596F75206D757374206F776E20746865204E465420746F206C6973742069742E PUSH1 0x44 DUP3 ADD MSTORE REVERT JUMPDEST SWAP1 SWAP2 POP DUP5 RETURNDATASIZE DUP7 GT PUSH2 0x366 JUMPI JUMPDEST PUSH1 0x1F DUP2 ADD PUSH1 0x1F NOT AND DUP3 ADD PUSH8 0xFFFFFFFFFFFFFFFF DUP2 GT DUP4 DUP3 LT OR PUSH2 0x351 JUMPI DUP7 SWAP2 DUP4 SWAP2 DUP12 MSTORE DUP2 ADD SUB SLT PUSH2 0x34D JUMPI MLOAD DUP2 DUP2 AND DUP2 SUB PUSH2 0x34D JUMPI SWAP1 CODESIZE PUSH2 0x1A7 JUMP JUMPDEST DUP7 DUP1 REVERT JUMPDEST PUSH1 0x41 DUP7 PUSH4 0x4E487B71 PUSH1 0xE0 SHL PUSH1 0x0 MSTORE MSTORE PUSH1 0x24 PUSH1 0x0 REVERT JUMPDEST POP RETURNDATASIZE PUSH2 0x311 JUMP JUMPDEST DUP9 MLOAD RETURNDATASIZE DUP10 DUP3 RETURNDATACOPY RETURNDATASIZE SWAP1 REVERT JUMPDEST DUP4 DUP3 CALLVALUE PUSH2 0x151 JUMPI DUP2 PUSH1 0x3 NOT CALLDATASIZE ADD SLT PUSH2 0x151 JUMPI SWAP1 SLOAD SWAP1 MLOAD PUSH1 0x1 PUSH1 0x1 PUSH1 0xA0 SHL SUB SWAP1 SWAP2 AND DUP2 MSTORE PUSH1 0x20 SWAP1 RETURN JUMPDEST DUP4 DUP3 CALLVALUE PUSH2 0x151 JUMPI DUP2 PUSH1 0x3 NOT CALLDATASIZE ADD SLT PUSH2 0x151 JUMPI PUSH1 0x3 SLOAD SWAP1 MLOAD PUSH1 0x1 PUSH1 0x1 PUSH1 0xA0 SHL SUB SWAP1 SWAP2 AND DUP2 MSTORE PUSH1 0x20 SWAP1 RETURN JUMPDEST DUP4 CALLVALUE PUSH2 0x422 JUMPI DUP1 PUSH1 0x3 NOT CALLDATASIZE ADD SLT PUSH2 0x422 JUMPI PUSH2 0x3E1 PUSH2 0x8E1 JUMP JUMPDEST PUSH1 0x0 DUP1 SLOAD PUSH1 0x1 PUSH1 0x1 PUSH1 0xA0 SHL SUB NOT DUP2 AND DUP3 SSTORE PUSH1 0x1 PUSH1 0x1 PUSH1 0xA0 SHL SUB AND PUSH32 0x8BE0079C531659141344CD1FD0A4F28419497F9722A3DAAFE3B4186F6B6457E0 DUP3 DUP1 LOG3 DUP1 RETURN JUMPDEST DUP1 REVERT JUMPDEST POP SWAP1 CALLVALUE PUSH2 0x124 JUMPI PUSH1 0x20 CALLDATASIZE PUSH1 0x3 NOT ADD SLT PUSH2 0x124 JUMPI PUSH1 0xA0 SWAP3 DUP2 DUP4 SWAP3 CALLDATALOAD DUP3 MSTORE PUSH1 0x20 MSTORE KECCAK256 PUSH1 0xFF PUSH1 0x1 DUP1 DUP6 SHL SUB SWAP2 DUP3 DUP2 SLOAD AND SWAP4 PUSH1 0x1 DUP3 ADD SLOAD SWAP4 PUSH1 0x3 PUSH1 0x2 DUP5 ADD SLOAD SWAP4 ADD SLOAD SWAP5 DUP3 MLOAD SWAP7 DUP8 MSTORE PUSH1 0x20 DUP8 ADD MSTORE DUP3 AND SWAP1 DUP6 ADD MSTORE DUP5 SHR AND ISZERO ISZERO PUSH1 0x60 DUP4 ADD MSTORE PUSH1 0x80 DUP3 ADD MSTORE RETURN JUMPDEST POP DUP3 SWAP1 PUSH1 0x20 CALLDATASIZE PUSH1 0x3 NOT ADD SLT PUSH2 0x151 JUMPI DUP3 CALLDATALOAD SWAP1 PUSH2 0x49F PUSH2 0x988 JUMP JUMPDEST DUP2 DUP4 MSTORE DUP4 PUSH1 0x20 MSTORE DUP1 DUP4 KECCAK256 PUSH1 0x3 DUP2 ADD SLOAD TIMESTAMP GT PUSH2 0x5E3 JUMPI PUSH1 0x1 DUP2 ADD DUP1 SLOAD DUP1 CALLVALUE GT ISZERO PUSH2 0x5A0 JUMPI SWAP1 DUP2 PUSH1 0x5 SWAP4 SWAP3 PUSH2 0x573 JUMPI JUMPDEST POP PUSH1 0x2 DUP3 ADD DUP1 SLOAD PUSH1 0x1 PUSH1 0x1 PUSH1 0xA0 SHL SUB NOT AND CALLER OR SWAP1 SSTORE CALLVALUE SWAP1 SSTORE ADD DUP1 SLOAD SWAP1 PUSH9 0x10000000000000000 DUP3 LT ISZERO PUSH2 0x560 JUMPI DUP2 PUSH2 0x52C SWAP2 PUSH1 0x1 PUSH32 0xDA0A18DA71D8EBD145966339A728FC0D8CCC07C22870D561890D823C515DDA6B SWAP6 SWAP5 ADD DUP2 SSTORE PUSH2 0x95A JUMP JUMPDEST DUP2 SLOAD PUSH1 0x1 PUSH1 0x1 PUSH1 0xA0 SHL SUB PUSH1 0x3 SWAP3 SWAP1 SWAP3 SHL SWAP2 DUP3 SHL NOT AND CALLER SWAP2 DUP3 SWAP1 SHL OR SWAP1 SWAP2 SSTORE SWAP1 MLOAD SWAP1 DUP2 MSTORE CALLVALUE PUSH1 0x20 DUP3 ADD MSTORE PUSH1 0x40 SWAP1 LOG2 PUSH1 0x1 DUP1 SSTORE DUP1 RETURN JUMPDEST PUSH4 0x4E487B71 PUSH1 0xE0 SHL DUP6 MSTORE PUSH1 0x41 DUP7 MSTORE PUSH1 0x24 DUP6 REVERT JUMPDEST PUSH1 0x1 DUP1 PUSH1 0xA0 SHL SUB PUSH1 0x2 DUP5 ADD SLOAD AND PUSH1 0x0 MSTORE DUP8 DUP4 ADD PUSH1 0x20 MSTORE PUSH2 0x598 DUP6 PUSH1 0x0 KECCAK256 SWAP2 DUP3 SLOAD PUSH2 0x937 JUMP JUMPDEST SWAP1 SSTORE DUP8 PUSH2 0x4CD JUMP JUMPDEST DUP4 MLOAD PUSH3 0x461BCD PUSH1 0xE5 SHL DUP2 MSTORE PUSH1 0x20 DUP2 DUP10 ADD MSTORE PUSH1 0x1E PUSH1 0x24 DUP3 ADD MSTORE PUSH32 0x546865726520616C7265616479206973206120686967686572206269642E0000 PUSH1 0x44 DUP3 ADD MSTORE PUSH1 0x64 SWAP1 REVERT JUMPDEST DUP2 MLOAD PUSH3 0x461BCD PUSH1 0xE5 SHL DUP2 MSTORE PUSH1 0x20 DUP2 DUP8 ADD MSTORE PUSH1 0x16 PUSH1 0x24 DUP3 ADD MSTORE PUSH22 0x20BAB1BA34B7B71030B63932B0B23C9032B73232B217 PUSH1 0x51 SHL PUSH1 0x44 DUP3 ADD MSTORE PUSH1 0x64 SWAP1 REVERT JUMPDEST POP SWAP1 CALLVALUE PUSH2 0x124 JUMPI PUSH1 0x20 SWAP1 DUP2 PUSH1 0x3 NOT CALLDATASIZE ADD SLT PUSH2 0x2B6 JUMPI DUP1 CALLDATALOAD SWAP3 PUSH2 0x63F PUSH2 0x988 JUMP JUMPDEST DUP4 DUP6 MSTORE DUP2 DUP4 MSTORE DUP1 DUP6 KECCAK256 PUSH1 0x3 SWAP4 DUP5 DUP3 ADD SLOAD TIMESTAMP LT PUSH2 0x871 JUMPI PUSH1 0x2 DUP3 ADD SWAP2 DUP3 SLOAD PUSH1 0xFF DUP2 PUSH1 0xA0 SHR AND PUSH2 0x822 JUMPI PUSH1 0x1 PUSH1 0xA0 SHL PUSH1 0xFF PUSH1 0xA0 SHL NOT DUP3 AND OR DUP5 SSTORE PUSH1 0x1 DUP3 DUP2 ADD DUP1 SLOAD DUP8 MLOAD PUSH1 0x1 PUSH1 0x1 PUSH1 0xA0 SHL SUB SWAP5 DUP6 AND DUP1 DUP3 MSTORE PUSH1 0x20 DUP3 ADD SWAP3 SWAP1 SWAP3 MSTORE SWAP3 SWAP11 SWAP2 SWAP3 SWAP1 SWAP2 DUP13 SWAP2 DUP2 SWAP1 PUSH32 0xD2AA34A4FDBBC6DFF6A3E56F46E0F3AE2A31D7785FF3487AA5C95C642ACEA501 SWAP1 PUSH1 0x40 SWAP1 LOG2 DUP5 PUSH1 0x2 SLOAD AND DUP1 EXTCODESIZE ISZERO PUSH2 0x124 JUMPI DUP10 MLOAD PUSH4 0x23B872DD PUSH1 0xE0 SHL DUP2 MSTORE ADDRESS DUP2 DUP14 ADD SWAP1 DUP2 MSTORE PUSH1 0x1 PUSH1 0x1 PUSH1 0xA0 SHL SUB SWAP1 SWAP6 AND PUSH1 0x20 DUP7 ADD MSTORE PUSH1 0x40 DUP6 ADD SWAP3 SWAP1 SWAP3 MSTORE SWAP1 SWAP3 DUP4 SWAP2 SWAP1 DUP3 SWAP1 DUP5 SWAP1 DUP3 SWAP1 PUSH1 0x60 ADD SUB SWAP3 GAS CALL DUP1 ISZERO PUSH2 0x818 JUMPI PUSH2 0x805 JUMPI JUMPDEST POP DUP10 DUP1 DUP1 DUP1 SWAP4 DUP6 DUP13 SLOAD AND SWAP1 SLOAD SWAP1 DUP3 DUP3 ISZERO PUSH2 0x7FC JUMPI JUMPDEST CALL ISZERO PUSH2 0x7F2 JUMPI DUP9 SWAP8 SWAP7 PUSH1 0x5 DUP4 ADD DUP9 JUMPDEST PUSH2 0x74A JUMPI JUMPDEST DUP10 DUP10 DUP1 SSTORE DUP1 RETURN JUMPDEST DUP1 SLOAD DUP12 LT ISZERO PUSH2 0x7ED JUMPI DUP10 DUP4 PUSH2 0x75F DUP14 DUP5 PUSH2 0x95A JUMP JUMPDEST SWAP1 SLOAD SWAP1 DUP6 SHL SHR AND DUP5 DUP9 SLOAD AND DUP2 SUB PUSH2 0x799 JUMPI JUMPDEST POP POP PUSH1 0x0 NOT DUP12 EQ PUSH2 0x786 JUMPI SWAP10 DUP9 ADD SWAP10 DUP9 PUSH2 0x73E JUMP JUMPDEST PUSH4 0x4E487B71 PUSH1 0xE0 SHL DUP11 MSTORE PUSH1 0x11 DUP9 MSTORE PUSH1 0x24 DUP11 REVERT JUMPDEST DUP1 PUSH1 0x0 MSTORE DUP10 DUP7 ADD DUP8 MSTORE DUP9 PUSH1 0x0 KECCAK256 DUP1 SLOAD SWAP1 DUP2 ISZERO SWAP2 DUP3 ISZERO PUSH2 0x7BB JUMPI JUMPDEST POP POP POP PUSH2 0x771 JUMP JUMPDEST DUP5 SWAP4 DUP5 SWAP4 DUP5 DUP1 SWAP5 SSTORE DUP4 SWAP1 PUSH2 0x7E4 JUMPI JUMPDEST CALL ISZERO PUSH2 0x7DA JUMPI DUP10 CODESIZE DUP1 DUP1 DUP1 PUSH2 0x7B3 JUMP JUMPDEST DUP7 MLOAD RETURNDATASIZE DUP12 DUP3 RETURNDATACOPY RETURNDATASIZE SWAP1 REVERT JUMPDEST POP PUSH2 0x8FC PUSH2 0x7CA JUMP JUMPDEST PUSH2 0x743 JUMP JUMPDEST DUP5 MLOAD RETURNDATASIZE DUP11 DUP3 RETURNDATACOPY RETURNDATASIZE SWAP1 REVERT JUMPDEST POP PUSH2 0x8FC PUSH2 0x72F JUMP JUMPDEST PUSH2 0x811 SWAP1 SWAP11 SWAP2 SWAP11 PUSH2 0x90D JUMP JUMPDEST SWAP9 CODESIZE PUSH2 0x71A JUMP JUMPDEST DUP8 MLOAD RETURNDATASIZE DUP14 DUP3 RETURNDATACOPY RETURNDATASIZE SWAP1 REVERT JUMPDEST DUP5 MLOAD PUSH3 0x461BCD PUSH1 0xE5 SHL DUP2 MSTORE DUP1 DUP8 ADD DUP5 SWAP1 MSTORE PUSH1 0x23 PUSH1 0x24 DUP3 ADD MSTORE PUSH32 0x61756374696F6E456E642068617320616C7265616479206265656E2063616C6C PUSH1 0x44 DUP3 ADD MSTORE PUSH3 0x32B217 PUSH1 0xE9 SHL PUSH1 0x64 DUP3 ADD MSTORE PUSH1 0x84 SWAP1 REVERT JUMPDEST DUP4 PUSH1 0x64 SWAP2 DUP5 MLOAD SWAP2 PUSH3 0x461BCD PUSH1 0xE5 SHL DUP4 MSTORE DUP3 ADD MSTORE PUSH1 0x16 PUSH1 0x24 DUP3 ADD MSTORE PUSH22 0x20BAB1BA34B7B7103737BA103CB2BA1032B73232B217 PUSH1 0x51 SHL PUSH1 0x44 DUP3 ADD MSTORE REVERT JUMPDEST POP DUP3 CALLVALUE PUSH2 0x422 JUMPI PUSH1 0x20 CALLDATASIZE PUSH1 0x3 NOT ADD SLT PUSH2 0x422 JUMPI POP PUSH2 0x8D4 PUSH1 0x20 SWAP3 PUSH2 0x8CE PUSH2 0x988 JUMP JUMPDEST CALLDATALOAD PUSH2 0x9DE JUMP JUMPDEST SWAP1 PUSH1 0x1 DUP1 SSTORE MLOAD SWAP1 ISZERO ISZERO DUP2 MSTORE RETURN JUMPDEST PUSH1 0x0 SLOAD PUSH1 0x1 PUSH1 0x1 PUSH1 0xA0 SHL SUB AND CALLER SUB PUSH2 0x8F5 JUMPI JUMP JUMPDEST PUSH1 0x40 MLOAD PUSH4 0x118CDAA7 PUSH1 0xE0 SHL DUP2 MSTORE CALLER PUSH1 0x4 DUP3 ADD MSTORE PUSH1 0x24 SWAP1 REVERT JUMPDEST PUSH8 0xFFFFFFFFFFFFFFFF DUP2 GT PUSH2 0x921 JUMPI PUSH1 0x40 MSTORE JUMP JUMPDEST PUSH4 0x4E487B71 PUSH1 0xE0 SHL PUSH1 0x0 MSTORE PUSH1 0x41 PUSH1 0x4 MSTORE PUSH1 0x24 PUSH1 0x0 REVERT JUMPDEST SWAP2 SWAP1 DUP3 ADD DUP1 SWAP3 GT PUSH2 0x944 JUMPI JUMP JUMPDEST PUSH4 0x4E487B71 PUSH1 0xE0 SHL PUSH1 0x0 MSTORE PUSH1 0x11 PUSH1 0x4 MSTORE PUSH1 0x24 PUSH1 0x0 REVERT JUMPDEST DUP1 SLOAD DUP3 LT ISZERO PUSH2 0x972 JUMPI PUSH1 0x0 MSTORE PUSH1 0x20 PUSH1 0x0 KECCAK256 ADD SWAP1 PUSH1 0x0 SWAP1 JUMP JUMPDEST PUSH4 0x4E487B71 PUSH1 0xE0 SHL PUSH1 0x0 MSTORE PUSH1 0x32 PUSH1 0x4 MSTORE PUSH1 0x24 PUSH1 0x0 REVERT JUMPDEST PUSH1 0x2 PUSH1 0x1 SLOAD EQ PUSH2 0x999 JUMPI PUSH1 0x2 PUSH1 0x1 SSTORE JUMP JUMPDEST PUSH1 0x40 MLOAD PUSH3 0x461BCD PUSH1 0xE5 SHL DUP2 MSTORE PUSH1 0x20 PUSH1 0x4 DUP3 ADD MSTORE PUSH1 0x1F PUSH1 0x24 DUP3 ADD MSTORE PUSH32 0x5265656E7472616E637947756172643A207265656E7472616E742063616C6C00 PUSH1 0x44 DUP3 ADD MSTORE PUSH1 0x64 SWAP1 REVERT JUMPDEST PUSH1 0x0 SWAP1 DUP2 MSTORE PUSH1 0x4 PUSH1 0x20 MSTORE PUSH1 0x4 PUSH1 0x40 DUP3 KECCAK256 ADD CALLER DUP3 MSTORE DUP1 PUSH1 0x20 MSTORE PUSH1 0x40 DUP3 KECCAK256 SWAP1 DUP2 SLOAD SWAP2 DUP3 ISZERO DUP1 ISZERO PUSH2 0xA11 JUMPI JUMPDEST POP POP POP POP POP PUSH1 0x1 SWAP1 JUMP JUMPDEST DUP5 DUP1 SWAP3 SSTORE DUP4 DUP3 SWAP2 PUSH2 0xA40 JUMPI JUMPDEST DUP3 DUP1 SWAP3 SWAP2 DUP2 SWAP3 CALLER SWAP1 CALL ISZERO PUSH2 0xA32 JUMPI DUP1 DUP1 PUSH2 0xA07 JUMP JUMPDEST CALLER DUP4 MSTORE PUSH1 0x20 MSTORE PUSH1 0x40 DUP3 KECCAK256 SSTORE SWAP1 JUMP JUMPDEST PUSH2 0x8FC SWAP2 POP PUSH2 0xA1D JUMP INVALID LOG2 PUSH5 0x6970667358 0x22 SLT KECCAK256 SLOAD PUSH29 0xF8625FC6221C264D7EA076393DC04AA5B58EAEBB3B6A6EC52C99CE252D SLT PUSH5 0x736F6C6343 STOP ADDMOD EQ STOP CALLER "},"methodIdentifiers":{"auctionEnd(uint256)":"32246e9f","auctions(uint256)":"571a26a0","bid(uint256)":"454a2ab3","charityWallet()":"7b208769","listNFT(uint256,uint256)":"94383f14","nftContract()":"d56d229d","owner()":"8da5cb5b","renounceOwnership()":"715018a6","transferOwnership(address)":"f2fde38b","withdraw(uint256)":"2e1a7d4d"}}}}}