{
  "_format": "hh-sol-artifact-1",
  "contractName": "DEVNFT",
  "sourceName": "contracts/BasicNFT.sol",
  "abi": [
    {
      "inputs": [
        {
          "internalType": "string",
          "name": "name",
          "type": "string"
        },
        {
          "internalType": "string",
          "name": "symbol",
          "type": "string"
        }
      ],
      "stateMutability": "nonpayable",
      "type": "constructor"
    },
    {
      "inputs": [
        {
          "internalType": "address",
          "name": "sender",
          "type": "address"
        },
        {
          "internalType": "uint256",
          "name": "tokenId",
          "type": "uint256"
        },
        {
          "internalType": "address",
          "name": "owner",
          "type": "address"
        }
      ],
      "name": "ERC721IncorrectOwner",
      "type": "error"
    },
    {
      "inputs": [
        {
          "internalType": "address",
          "name": "operator",
          "type": "address"
        },
        {
          "internalType": "uint256",
          "name": "tokenId",
          "type": "uint256"
        }
      ],
      "name": "ERC721InsufficientApproval",
      "type": "error"
    },
    {
      "inputs": [
        {
          "internalType": "address",
          "name": "approver",
          "type": "address"
        }
      ],
      "name": "ERC721InvalidApprover",
      "type": "error"
    },
    {
      "inputs": [
        {
          "internalType": "address",
          "name": "operator",
          "type": "address"
        }
      ],
      "name": "ERC721InvalidOperator",
      "type": "error"
    },
    {
      "inputs": [
        {
          "internalType": "address",
          "name": "owner",
          "type": "address"
        }
      ],
      "name": "ERC721InvalidOwner",
      "type": "error"
    },
    {
      "inputs": [
        {
          "internalType": "address",
          "name": "receiver",
          "type": "address"
        }
      ],
      "name": "ERC721InvalidReceiver",
      "type": "error"
    },
    {
      "inputs": [
        {
          "internalType": "address",
          "name": "sender",
          "type": "address"
        }
      ],
      "name": "ERC721InvalidSender",
      "type": "error"
    },
    {
      "inputs": [
        {
          "internalType": "uint256",
          "name": "tokenId",
          "type": "uint256"
        }
      ],
      "name": "ERC721NonexistentToken",
      "type": "error"
    },
    {
      "inputs": [
        {
          "internalType": "address",
          "name": "owner",
          "type": "address"
        }
      ],
      "name": "OwnableInvalidOwner",
      "type": "error"
    },
    {
      "inputs": [
        {
          "internalType": "address",
          "name": "account",
          "type": "address"
        }
      ],
      "name": "OwnableUnauthorizedAccount",
      "type": "error"
    },
    {
      "anonymous": false,
      "inputs": [
        {
          "indexed": true,
          "internalType": "address",
          "name": "owner",
          "type": "address"
        },
        {
          "indexed": true,
          "internalType": "address",
          "name": "approved",
          "type": "address"
        },
        {
          "indexed": true,
          "internalType": "uint256",
          "name": "tokenId",
          "type": "uint256"
        }
      ],
      "name": "Approval",
      "type": "event"
    },
    {
      "anonymous": false,
      "inputs": [
        {
          "indexed": true,
          "internalType": "address",
          "name": "owner",
          "type": "address"
        },
        {
          "indexed": true,
          "internalType": "address",
          "name": "operator",
          "type": "address"
        },
        {
          "indexed": false,
          "internalType": "bool",
          "name": "approved",
          "type": "bool"
        }
      ],
      "name": "ApprovalForAll",
      "type": "event"
    },
    {
      "anonymous": false,
      "inputs": [
        {
          "indexed": false,
          "internalType": "uint256",
          "name": "_fromTokenId",
          "type": "uint256"
        },
        {
          "indexed": false,
          "internalType": "uint256",
          "name": "_toTokenId",
          "type": "uint256"
        }
      ],
      "name": "BatchMetadataUpdate",
      "type": "event"
    },
    {
      "anonymous": false,
      "inputs": [
        {
          "indexed": false,
          "internalType": "uint256",
          "name": "_tokenId",
          "type": "uint256"
        }
      ],
      "name": "MetadataUpdate",
      "type": "event"
    },
    {
      "anonymous": false,
      "inputs": [
        {
          "indexed": true,
          "internalType": "address",
          "name": "previousOwner",
          "type": "address"
        },
        {
          "indexed": true,
          "internalType": "address",
          "name": "newOwner",
          "type": "address"
        }
      ],
      "name": "OwnershipTransferred",
      "type": "event"
    },
    {
      "anonymous": false,
      "inputs": [
        {
          "indexed": true,
          "internalType": "address",
          "name": "from",
          "type": "address"
        },
        {
          "indexed": true,
          "internalType": "address",
          "name": "to",
          "type": "address"
        },
        {
          "indexed": true,
          "internalType": "uint256",
          "name": "tokenId",
          "type": "uint256"
        }
      ],
      "name": "Transfer",
      "type": "event"
    },
    {
      "inputs": [
        {
          "internalType": "address",
          "name": "to",
          "type": "address"
        },
        {
          "internalType": "uint256",
          "name": "tokenId",
          "type": "uint256"
        }
      ],
      "name": "approve",
      "outputs": [],
      "stateMutability": "nonpayable",
      "type": "function"
    },
    {
      "inputs": [
        {
          "internalType": "address",
          "name": "owner",
          "type": "address"
        }
      ],
      "name": "balanceOf",
      "outputs": [
        {
          "internalType": "uint256",
          "name": "",
          "type": "uint256"
        }
      ],
      "stateMutability": "view",
      "type": "function"
    },
    {
      "inputs": [
        {
          "internalType": "uint256",
          "name": "tokenId",
          "type": "uint256"
        }
      ],
      "name": "getApproved",
      "outputs": [
        {
          "internalType": "address",
          "name": "",
          "type": "address"
        }
      ],
      "stateMutability": "view",
      "type": "function"
    },
    {
      "inputs": [
        {
          "internalType": "address",
          "name": "owner",
          "type": "address"
        },
        {
          "internalType": "address",
          "name": "operator",
          "type": "address"
        }
      ],
      "name": "isApprovedForAll",
      "outputs": [
        {
          "internalType": "bool",
          "name": "",
          "type": "bool"
        }
      ],
      "stateMutability": "view",
      "type": "function"
    },
    {
      "inputs": [
        {
          "internalType": "address",
          "name": "recipient",
          "type": "address"
        },
        {
          "internalType": "string",
          "name": "tokenURI",
          "type": "string"
        }
      ],
      "name": "mintNFT",
      "outputs": [
        {
          "internalType": "uint256",
          "name": "",
          "type": "uint256"
        }
      ],
      "stateMutability": "nonpayable",
      "type": "function"
    },
    {
      "inputs": [],
      "name": "name",
      "outputs": [
        {
          "internalType": "string",
          "name": "",
          "type": "string"
        }
      ],
      "stateMutability": "view",
      "type": "function"
    },
    {
      "inputs": [],
      "name": "owner",
      "outputs": [
        {
          "internalType": "address",
          "name": "",
          "type": "address"
        }
      ],
      "stateMutability": "view",
      "type": "function"
    },
    {
      "inputs": [
        {
          "internalType": "uint256",
          "name": "tokenId",
          "type": "uint256"
        }
      ],
      "name": "ownerOf",
      "outputs": [
        {
          "internalType": "address",
          "name": "",
          "type": "address"
        }
      ],
      "stateMutability": "view",
      "type": "function"
    },
    {
      "inputs": [],
      "name": "renounceOwnership",
      "outputs": [],
      "stateMutability": "nonpayable",
      "type": "function"
    },
    {
      "inputs": [
        {
          "internalType": "address",
          "name": "from",
          "type": "address"
        },
        {
          "internalType": "address",
          "name": "to",
          "type": "address"
        },
        {
          "internalType": "uint256",
          "name": "tokenId",
          "type": "uint256"
        }
      ],
      "name": "safeTransferFrom",
      "outputs": [],
      "stateMutability": "nonpayable",
      "type": "function"
    },
    {
      "inputs": [
        {
          "internalType": "address",
          "name": "from",
          "type": "address"
        },
        {
          "internalType": "address",
          "name": "to",
          "type": "address"
        },
        {
          "internalType": "uint256",
          "name": "tokenId",
          "type": "uint256"
        },
        {
          "internalType": "bytes",
          "name": "data",
          "type": "bytes"
        }
      ],
      "name": "safeTransferFrom",
      "outputs": [],
      "stateMutability": "nonpayable",
      "type": "function"
    },
    {
      "inputs": [
        {
          "internalType": "address",
          "name": "operator",
          "type": "address"
        },
        {
          "internalType": "bool",
          "name": "approved",
          "type": "bool"
        }
      ],
      "name": "setApprovalForAll",
      "outputs": [],
      "stateMutability": "nonpayable",
      "type": "function"
    },
    {
      "inputs": [
        {
          "internalType": "bytes4",
          "name": "interfaceId",
          "type": "bytes4"
        }
      ],
      "name": "supportsInterface",
      "outputs": [
        {
          "internalType": "bool",
          "name": "",
          "type": "bool"
        }
      ],
      "stateMutability": "view",
      "type": "function"
    },
    {
      "inputs": [],
      "name": "symbol",
      "outputs": [
        {
          "internalType": "string",
          "name": "",
          "type": "string"
        }
      ],
      "stateMutability": "view",
      "type": "function"
    },
    {
      "inputs": [
        {
          "internalType": "uint256",
          "name": "tokenId",
          "type": "uint256"
        }
      ],
      "name": "tokenURI",
      "outputs": [
        {
          "internalType": "string",
          "name": "",
          "type": "string"
        }
      ],
      "stateMutability": "view",
      "type": "function"
    },
    {
      "inputs": [
        {
          "internalType": "address",
          "name": "from",
          "type": "address"
        },
        {
          "internalType": "address",
          "name": "to",
          "type": "address"
        },
        {
          "internalType": "uint256",
          "name": "tokenId",
          "type": "uint256"
        }
      ],
      "name": "transferFrom",
      "outputs": [],
      "stateMutability": "nonpayable",
      "type": "function"
    },
    {
      "inputs": [
        {
          "internalType": "address",
          "name": "newOwner",
          "type": "address"
        }
      ],
      "name": "transferOwnership",
      "outputs": [],
      "stateMutability": "nonpayable",
      "type": "function"
    }
  ],
  "bytecode": "0x6080604052346200038257620013ed803803806200001d8162000387565b9283398101604082820312620003825781516001600160401b0392908381116200038257826200004f918301620003ad565b906020928382015185811162000382576200006b9201620003ad565b9281518181116200036c576000938454916001948584811c9416801562000361575b838510146200034d578190601f94858111620002fa575b508390858311600114620002965788926200028a575b5050600019600383901b1c191690851b1785555b8551928311620002765783548481811c911680156200026b575b8282101462000257578281116200020f575b5080918311600114620001a957508394829394926200019d575b5050600019600383901b1c191690821b1790555b3315620001855760078054336001600160a01b031982168117909255604051926001600160a01b03909116907f8be0079c531659141344cd1fd0a4f28419497f9722a3daafe3b4186f6b6457e09080a3610fcd9081620004208239f35b60249060405190631e4fbdf760e01b82526004820152fd5b01519050388062000114565b90601f198316958486528286209286905b888210620001f75750508385969710620001dd575b505050811b01905562000128565b015160001960f88460031b161c19169055388080620001cf565b808785968294968601518155019501930190620001ba565b8486528186208380860160051c8201928487106200024d575b0160051c019085905b82811062000241575050620000fa565b87815501859062000231565b9250819262000228565b634e487b7160e01b86526022600452602486fd5b90607f1690620000e8565b634e487b7160e01b85526041600452602485fd5b015190503880620000ba565b8880528489208894509190601f1984168a5b87828210620002e35750508411620002c9575b505050811b018555620000ce565b015160001960f88460031b161c19169055388080620002bb565b8385015186558b97909501949384019301620002a8565b9091508780528388208580850160051c82019286861062000343575b918991869594930160051c01915b82811062000334575050620000a4565b8a815585945089910162000324565b9250819262000316565b634e487b7160e01b87526022600452602487fd5b93607f16936200008d565b634e487b7160e01b600052604160045260246000fd5b600080fd5b6040519190601f01601f191682016001600160401b038111838210176200036c57604052565b919080601f84011215620003825782516001600160401b0381116200036c57602090620003e3601f8201601f1916830162000387565b92818452828287010111620003825760005b8181106200040b57508260009394955001015290565b8581018301518482018401528201620003f556fe6080604081815260048036101561001557600080fd5b600092833560e01c90816301ffc9a714610a355750806306fdde031461098d578063081812fc14610952578063095ea7b31461087657806323b872dd1461085e57806342842e0e146108355780636352211e1461080457806370a08231146107af578063715018a61461074f5780638da5cb5b1461072657806395d89b4114610643578063a22cb465146105a6578063b88d4fde1461053e578063c87b56dd14610449578063e985e9c5146103fb578063eacabe14146101705763f2fde38b146100de57600080fd5b3461016c57602036600319011261016c576100f7610afb565b90610100610f6b565b6001600160a01b03918216928315610156575050600754826bffffffffffffffffffffffff60a01b821617600755167f8be0079c531659141344cd1fd0a4f28419497f9722a3daafe3b4186f6b6457e08380a380f35b51631e4fbdf760e01b8152908101849052602490fd5b8280fd5b509190346103f757806003193601126103f75761018b610afb565b9267ffffffffffffffff926024358481116103f757366023820112156103f7576101be9036906024818601359101610bd1565b936101c7610f6b565b6001918260085401958660085560018060a01b0380981680156103e0578783528760209960028b5288852054169182151592836103ad575b81865260038c5289862080548901905582865260028c5289862080546001600160a01b031916831790557fddf252ad1be2c89b69c2b068fc378daa952ba7f163c4a11628f55a4df523b3ef8680a4610396578682526006885285822094815193841161038357506102708554610c08565b601f811161033d575b508791601f84116001146102de57918394918493946102d3575b50501b916000199060031b1c19161790555b7ff8e1a15aba9398e019f0b49df1a4fde98ee17ae345cb5f6b5e2c27f5033e8ce7838251848152a151908152f35b015192503880610293565b919083601f1981168785528a8520945b8b88838310610326575050501061030d575b505050811b0190556102a5565b015160001960f88460031b161c19169055388080610300565b8686015188559096019594850194879350016102ee565b858352888320601f850160051c8101918a8610610379575b601f0160051c019085905b82811061036e575050610279565b848155018590610360565b9091508190610355565b634e487b7160e01b835260419052602482fd5b85516339e3563760e11b8152808601839052602490fd5b600083815260046020526040902080546001600160a01b031916905580865260038c5289862080546000190190556101ff565b8651633250574960e11b8152808701849052602490fd5b5080fd5b5050346103f757806003193601126103f75760ff8160209361041b610afb565b610423610b16565b6001600160a01b0391821683526005875283832091168252855220549151911615158152f35b50903461016c576020918260031936011261053a573561046881610f30565b5083526006825280832092815180948290805461048481610c08565b918285526001918883821691826000146105135750506001146104d5575b5050506104d19392916104b6910386610b93565b81516104c181610b61565b5251928284938452830190610abb565b0390f35b8552868520879350859291905b8284106104fb57505050820101816104b66104d16104a2565b8054848b0186015289955088949093019281016104e2565b60ff19168782015293151560051b860190930193508492506104b691506104d190506104a2565b8380fd5b8382346103f75760803660031901126103f757610559610afb565b610561610b16565b9060643567ffffffffffffffff81116105a257366023820112156105a25761059f9381602461059593369301359101610bd1565b9160443591610de1565b80f35b8480fd5b50903461016c578060031936011261016c576105c0610afb565b90602435918215158093036105a2576001600160a01b031692831561062e5750338452600560205280842083855260205280842060ff1981541660ff8416179055519081527f17307eab39ab6107e8899845ad3d59bd9653f200f220920489ca2b5937696c3160203392a380f35b836024925191630b61174360e31b8352820152fd5b5050346103f757816003193601126103f75780519082600180549161066783610c08565b808652928281169081156106fe57506001146106a2575b505050610690826104d1940383610b93565b51918291602083526020830190610abb565b94508085527fb10e2d527612073b26eecdfd717e6a320cf44b4afac2b0732d9fcbe2b7fa0cf65b8286106106e6575050506106908260206104d1958201019461067e565b805460208787018101919091529095019481016106c9565b6104d197508693506020925061069094915060ff191682840152151560051b8201019461067e565b5050346103f757816003193601126103f75760075490516001600160a01b039091168152602090f35b83346107ac57806003193601126107ac57610768610f6b565b600780546001600160a01b0319811690915581906001600160a01b03167f8be0079c531659141344cd1fd0a4f28419497f9722a3daafe3b4186f6b6457e08280a380f35b80fd5b5091346107ac5760203660031901126107ac576001600160a01b036107d2610afb565b169283156107ef5750806020938392526003845220549051908152f35b91516322718ad960e21b815291820152602490fd5b5091346107ac5760203660031901126107ac575061082460209235610f30565b90516001600160a01b039091168152f35b5050346103f75761059f9061084936610b2c565b9192519261085684610b61565b858452610de1565b83346107ac5761059f61087036610b2c565b91610c42565b50903461016c578060031936011261016c57610890610afb565b9160243561089d81610f30565b3315158061093f575b80610916575b610900576001600160a01b039485169482918691167f8c5be1e5ebec7d5bd14f71427d1e84f3dd0314c0f7b2291e5b200ac8c7c3b9258880a48452602052822080546001600160a01b031916909117905580f35b835163a9fbf51f60e01b81523381850152602490fd5b506001600160a01b03811686526005602090815284872033885290528386205460ff16156108ac565b506001600160a01b0381163314156108a6565b503461016c57602036600319011261016c5791826020933561097381610f30565b50825283528190205490516001600160a01b039091168152f35b5050346103f757816003193601126103f7578051908280546109ae81610c08565b808552916001918083169081156106fe57506001146109d957505050610690826104d1940383610b93565b80809650527f290decd9548b62a8d60345a988386fc84ba6bc95484008f6362f93160ef3e5635b828610610a1d575050506106908260206104d1958201019461067e565b80546020878701810191909152909501948101610a00565b9250503461016c57602036600319011261016c573563ffffffff60e01b811680910361016c5760209250632483248360e11b8114908115610a78575b5015158152f35b6380ac58cd60e01b811491508115610aaa575b8115610a99575b5038610a71565b6301ffc9a760e01b14905038610a92565b635b5e139f60e01b81149150610a8b565b919082519283825260005b848110610ae7575050826000602080949584010152601f8019910116010190565b602081830181015184830182015201610ac6565b600435906001600160a01b0382168203610b1157565b600080fd5b602435906001600160a01b0382168203610b1157565b6060906003190112610b11576001600160a01b03906004358281168103610b1157916024359081168103610b11579060443590565b6020810190811067ffffffffffffffff821117610b7d57604052565b634e487b7160e01b600052604160045260246000fd5b90601f8019910116810190811067ffffffffffffffff821117610b7d57604052565b67ffffffffffffffff8111610b7d57601f01601f191660200190565b929192610bdd82610bb5565b91610beb6040519384610b93565b829481845281830111610b11578281602093846000960137010152565b90600182811c92168015610c38575b6020831014610c2257565b634e487b7160e01b600052602260045260246000fd5b91607f1691610c17565b6001600160a01b039182169290918315610dc857600092828452826020956002875260409684888820541696879133151580610d32575b509060027fddf252ad1be2c89b69c2b068fc378daa952ba7f163c4a11628f55a4df523b3ef9284610cff575b858352600381528b8320805460010190558683525289812080546001600160a01b0319168517905580a41692838303610cde5750505050565b6064945051926364283d7b60e01b8452600484015260248301526044820152fd5b600087815260046020526040902080546001600160a01b0319169055848352600381528b83208054600019019055610ca5565b91939450915080610d87575b15610d4e57859291879138610c79565b878688610d6b576024915190637e27328960e01b82526004820152fd5b604491519063177e802f60e01b82523360048301526024820152fd5b503387148015610dac575b80610d3e5750858252600481523385898420541614610d3e565b5086825260058152878220338352815260ff8883205416610d92565b604051633250574960e11b815260006004820152602490fd5b610dec838383610c42565b813b610df9575b50505050565b604051630a85bd0160e11b8082523360048301526001600160a01b03928316602483015260448201949094526080606482015260209592909116939092908390610e47906084830190610abb565b039285816000958187895af1849181610ef0575b50610ebb575050503d600014610eb3573d610e7581610bb5565b90610e836040519283610b93565b81528091843d92013e5b80519283610eae57604051633250574960e11b815260048101849052602490fd5b019050fd5b506060610e8d565b919450915063ffffffff60e01b1603610ed8575038808080610df3565b60249060405190633250574960e11b82526004820152fd5b9091508681813d8311610f29575b610f088183610b93565b810103126105a257516001600160e01b0319811681036105a2579038610e5b565b503d610efe565b6000818152600260205260409020546001600160a01b0316908115610f53575090565b60249060405190637e27328960e01b82526004820152fd5b6007546001600160a01b03163303610f7f57565b60405163118cdaa760e01b8152336004820152602490fdfea264697066735822122030ba2cd41d5369d355dda2bb382ccb30a4dcd32d4c9094f0456efbf9d9ca567864736f6c63430008140033",
  "linkReferences": {},
  "deployedLinkReferences": {}
}