{
  "_format": "hh-sol-artifact-1",
  "contractName": "NFTAuction",
  "sourceName": "contracts/NFTAuction.sol",
  "abi": [
    {
      "inputs": [
        {
          "internalType": "address",
          "name": "_nftContract",
          "type": "address"
        },
        {
          "internalType": "address payable",
          "name": "_charityWallet",
          "type": "address"
        }
      ],
      "stateMutability": "nonpayable",
      "type": "constructor"
    },
    {
      "inputs": [
        {
          "internalType": "address",
          "name": "owner",
          "type": "address"
        }
      ],
      "name": "OwnableInvalidOwner",
      "type": "error"
    },
    {
      "inputs": [
        {
          "internalType": "address",
          "name": "account",
          "type": "address"
        }
      ],
      "name": "OwnableUnauthorizedAccount",
      "type": "error"
    },
    {
      "anonymous": false,
      "inputs": [
        {
          "indexed": true,
          "internalType": "uint256",
          "name": "tokenId",
          "type": "uint256"
        },
        {
          "indexed": false,
          "internalType": "address",
          "name": "winner",
          "type": "address"
        },
        {
          "indexed": false,
          "internalType": "uint256",
          "name": "amount",
          "type": "uint256"
        }
      ],
      "name": "AuctionEnded",
      "type": "event"
    },
    {
      "anonymous": false,
      "inputs": [
        {
          "indexed": true,
          "internalType": "uint256",
          "name": "tokenId",
          "type": "uint256"
        },
        {
          "indexed": false,
          "internalType": "uint256",
          "name": "endTime",
          "type": "uint256"
        }
      ],
      "name": "AuctionStarted",
      "type": "event"
    },
    {
      "anonymous": false,
      "inputs": [
        {
          "indexed": true,
          "internalType": "uint256",
          "name": "tokenId",
          "type": "uint256"
        },
        {
          "indexed": false,
          "internalType": "address",
          "name": "bidder",
          "type": "address"
        },
        {
          "indexed": false,
          "internalType": "uint256",
          "name": "amount",
          "type": "uint256"
        }
      ],
      "name": "HighestBidIncreased",
      "type": "event"
    },
    {
      "anonymous": false,
      "inputs": [
        {
          "indexed": true,
          "internalType": "address",
          "name": "previousOwner",
          "type": "address"
        },
        {
          "indexed": true,
          "internalType": "address",
          "name": "newOwner",
          "type": "address"
        }
      ],
      "name": "OwnershipTransferred",
      "type": "event"
    },
    {
      "inputs": [
        {
          "internalType": "uint256",
          "name": "tokenId",
          "type": "uint256"
        }
      ],
      "name": "auctionEnd",
      "outputs": [],
      "stateMutability": "nonpayable",
      "type": "function"
    },
    {
      "inputs": [
        {
          "internalType": "uint256",
          "name": "",
          "type": "uint256"
        }
      ],
      "name": "auctions",
      "outputs": [
        {
          "internalType": "address payable",
          "name": "seller",
          "type": "address"
        },
        {
          "internalType": "uint256",
          "name": "highestBid",
          "type": "uint256"
        },
        {
          "internalType": "address",
          "name": "highestBidder",
          "type": "address"
        },
        {
          "internalType": "bool",
          "name": "ended",
          "type": "bool"
        },
        {
          "internalType": "uint256",
          "name": "endTime",
          "type": "uint256"
        }
      ],
      "stateMutability": "view",
      "type": "function"
    },
    {
      "inputs": [
        {
          "internalType": "uint256",
          "name": "tokenId",
          "type": "uint256"
        }
      ],
      "name": "bid",
      "outputs": [],
      "stateMutability": "payable",
      "type": "function"
    },
    {
      "inputs": [],
      "name": "charityWallet",
      "outputs": [
        {
          "internalType": "address payable",
          "name": "",
          "type": "address"
        }
      ],
      "stateMutability": "view",
      "type": "function"
    },
    {
      "inputs": [
        {
          "internalType": "uint256",
          "name": "tokenId",
          "type": "uint256"
        },
        {
          "internalType": "uint256",
          "name": "biddingTime",
          "type": "uint256"
        }
      ],
      "name": "listNFT",
      "outputs": [],
      "stateMutability": "nonpayable",
      "type": "function"
    },
    {
      "inputs": [],
      "name": "nftContract",
      "outputs": [
        {
          "internalType": "contract BasicNFT",
          "name": "",
          "type": "address"
        }
      ],
      "stateMutability": "view",
      "type": "function"
    },
    {
      "inputs": [],
      "name": "owner",
      "outputs": [
        {
          "internalType": "address",
          "name": "",
          "type": "address"
        }
      ],
      "stateMutability": "view",
      "type": "function"
    },
    {
      "inputs": [],
      "name": "renounceOwnership",
      "outputs": [],
      "stateMutability": "nonpayable",
      "type": "function"
    },
    {
      "inputs": [
        {
          "internalType": "address",
          "name": "newOwner",
          "type": "address"
        }
      ],
      "name": "transferOwnership",
      "outputs": [],
      "stateMutability": "nonpayable",
      "type": "function"
    },
    {
      "inputs": [
        {
          "internalType": "uint256",
          "name": "tokenId",
          "type": "uint256"
        }
      ],
      "name": "withdraw",
      "outputs": [
        {
          "internalType": "bool",
          "name": "",
          "type": "bool"
        }
      ],
      "stateMutability": "nonpayable",
      "type": "function"
    }
  ],
  "bytecode": "0x6080346100e357601f610b7f38819003918201601f19168301916001600160401b038311848410176100e85780849260409485528339810103126100e35780516001600160a01b0391828216918290036100e35760200151908282168092036100e35733156100ca576000549060018060a01b0319913383821617600055604051943391167f8be0079c531659141344cd1fd0a4f28419497f9722a3daafe3b4186f6b6457e0600080a3600180558160025416176002556003541617600355610a8090816100ff8239f35b604051631e4fbdf760e01b815260006004820152602490fd5b600080fd5b634e487b7160e01b600052604160045260246000fdfe60406080815260048036101561001457600080fd5b600091823560e01c80632e1a7d4d146108ac57806332246e9f1461061f578063454a2ab314610485578063571a26a014610425578063715018a6146103c85780637b2087691461039f5780638da5cb5b1461037757806394383f1414610155578063d56d229d146101285763f2fde38b1461008e57600080fd5b34610124576020366003190112610124576001600160a01b03823581811693919290849003610120576100bf6108e1565b831561010a575050600054826bffffffffffffffffffffffff60a01b821617600055167f8be0079c531659141344cd1fd0a4f28419497f9722a3daafe3b4186f6b6457e0600080a380f35b51631e4fbdf760e01b8152908101849052602490fd5b8480fd5b8280fd5b83823461015157816003193601126101515760025490516001600160a01b039091168152602090f35b5080fd5b5091903461015157826003193601126101515760025483516331a9108f60e11b815282358184018190529260209290916001600160a01b03918216918482602481865afa91821561036d578792610305575b50339116036102c457803b156101205785516323b872dd60e01b815233838201908152306020820152604081018690529091869183919082908490829060600103925af180156102ba579085916102a2575b50839052815283832080546001600160a01b031916331781559361021f60243542610937565b6003860190815560056002870196875497600198888a8401556affffffffffffffffffffff60a81b1690550180549086815581610286575b50505490519081527ff8910119ddbef5440c54532457dfe8250a10ed39e583292818f44724b9e1344c9190a280f35b8652838620908101905b81811015610257578681558701610290565b6102ab9061090d565b6102b65783386101f9565b8380fd5b86513d87823e3d90fd5b508160649286519262461bcd60e51b845283015260248201527f596f75206d757374206f776e20746865204e465420746f206c6973742069742e6044820152fd5b909150843d8611610366575b601f8101601f1916820167ffffffffffffffff81118382101761035157869183918b528101031261034d5751818116810361034d5790386101a7565b8680fd5b604186634e487b7160e01b6000525260246000fd5b503d610311565b88513d89823e3d90fd5b838234610151578160031936011261015157905490516001600160a01b039091168152602090f35b83823461015157816003193601126101515760035490516001600160a01b039091168152602090f35b83346104225780600319360112610422576103e16108e1565b600080546001600160a01b0319811682556001600160a01b03167f8be0079c531659141344cd1fd0a4f28419497f9722a3daafe3b4186f6b6457e08280a380f35b80fd5b5090346101245760203660031901126101245760a0928183923582526020522060ff600180851b03918281541693600182015493600360028401549301549482519687526020870152821690850152841c16151560608301526080820152f35b50829060203660031901126101515782359061049f610988565b81835283602052808320600381015442116105e357600181018054803411156105a057908160059392610573575b506002820180546001600160a01b031916331790553490550180549068010000000000000000821015610560578161052c9160017fda0a18da71d8ebd145966339a728fc0d8ccc07c22870d561890d823c515dda6b959401815561095a565b81546001600160a01b0360039290921b91821b1916339182901b179091559051908152346020820152604090a26001805580f35b634e487b7160e01b855260418652602485fd5b60018060a01b0360028401541660005287830160205261059885600020918254610937565b9055876104cd565b835162461bcd60e51b8152602081890152601e60248201527f546865726520616c7265616479206973206120686967686572206269642e00006044820152606490fd5b815162461bcd60e51b8152602081870152601660248201527520bab1ba34b7b71030b63932b0b23c9032b73232b21760511b6044820152606490fd5b50903461012457602090816003193601126102b65780359261063f610988565b838552818352808520600393848201544210610871576002820191825460ff8160a01c1661082257600160a01b60ff60a01b1982161784556001828101805487516001600160a01b039485168082526020820192909252929a919290918c9181907fd2aa34a4fdbbc6dff6a3e56f46e0f3ae2a31d7785ff3487aa5c95c642acea50190604090a28460025416803b156101245789516323b872dd60e01b815230818d019081526001600160a01b0390951660208601526040850192909252909283919082908490829060600103925af1801561081857610805575b508980808093858c54169054908282156107fc575bf1156107f25788979660058301885b61074a575b8989805580f35b80548b10156107ed57898361075f8d8461095a565b905490851b1c16848854168103610799575b50506000198b1461078657998801998861073e565b634e487b7160e01b8a526011885260248afd5b8060005289860187528860002080549081159182156107bb575b505050610771565b849384938480945583906107e4575bf1156107da5789388080806107b3565b86513d8b823e3d90fd5b506108fc6107ca565b610743565b84513d8a823e3d90fd5b506108fc61072f565b610811909a919a61090d565b983861071a565b87513d8d823e3d90fd5b845162461bcd60e51b8152808701849052602360248201527f61756374696f6e456e642068617320616c7265616479206265656e2063616c6c60448201526232b21760e91b6064820152608490fd5b8360649184519162461bcd60e51b8352820152601660248201527520bab1ba34b7b7103737ba103cb2ba1032b73232b21760511b6044820152fd5b50823461042257602036600319011261042257506108d46020926108ce610988565b356109de565b9060018055519015158152f35b6000546001600160a01b031633036108f557565b60405163118cdaa760e01b8152336004820152602490fd5b67ffffffffffffffff811161092157604052565b634e487b7160e01b600052604160045260246000fd5b9190820180921161094457565b634e487b7160e01b600052601160045260246000fd5b80548210156109725760005260206000200190600090565b634e487b7160e01b600052603260045260246000fd5b600260015414610999576002600155565b60405162461bcd60e51b815260206004820152601f60248201527f5265656e7472616e637947756172643a207265656e7472616e742063616c6c006044820152606490fd5b600090815260046020526004604082200133825280602052604082209081549182158015610a11575b5050505050600190565b84809255838291610a40575b8280929181923390f115610a32578080610a07565b338352602052604082205590565b6108fc9150610a1d56fea2646970667358221220547cf8625fc6221c264d7ea076393dc04aa5b58eaebb3b6a6ec52c99ce252d1264736f6c63430008140033",
  "linkReferences": {},
  "deployedLinkReferences": {}
}